:1008D500E4FDFCC3ED9FEC9E5015E4FBFA0BBB0059
:0F08E500010ABA01F8BB3FF50DBD00010C80E41C
:0108F40022E1
:10080000050FE50F7002050ED39464E50E940040C9
:1008100005E4F50EF50FAE0EAF0F7C007D0A120851
:10082000808C088D09AE0EAF0F7C007D0A12088007
:100830007C007D0A1208808C0A8D0BAE0EAF0F7CF7
:10084000007D641208807C007D0A1208808C0C8D6B
:100850000DE4F583F582D3E5829464E5839400503A
:100860009F850990D2947F647E001208D5850B90F5
:10087000D2951208D5850D90D2961208D5A380D6B0
:030000000208F5FE
:0C08F500787FE4F6D8FD75810F02080042
:10088000BC000BBE0029EF8DF084FFADF022E4CC5C
:10089000F875F008EF2FFFEE33FEEC33FCEE9DEC25
:1008A000984005FCEE9DFE0FD5F0E9E4CEFD22ED6B
:1008B000F8F5F0EE8420D21CFEADF075F008EF2FB5
:1008C000FFED33FD4007985006D5F0F222C398FDA6
:0508D0000FD5F0EA2243
:00000001FF
