:0D08E7004E4954204E4147416C414E4400A3
:06089400C2B67F017E00E8
:10089A00E4FDFCC3ED9FEC9E5015E4FBFA0BBB0094
:0F08AA00010ABA01F8BB3FF50DBD00010C80E457
:0108B900221C
:0C08F4008F90D2B5C2B7120894C2B52292
:1008D5008D821208F4858290D2B5D2B7120894C2DF
:0208E500B5223A
:1008BA007F381208F47F061208F47F0C1208F47FBE
:0B08CA00011208F47F017E0002089A72
:080837008F088B098A0A890B66
:10083F00E4F50CAB09AA0AA90B850C82758300128B
:10084F000867FE64306010E508250CFFEEFD7C00A4
:07085F001208D5050C80DC36
:01086600226F
:100800001208BA7BFF7A0879E77F821208377F6483
:100810007E0012089AE4F9E9FF3395E0FEC3EF94F5
:1008200011EE6480948050DB7F181208F47F647EA0
:070830000012089A0980E0A4
:03000000020900F2
:0C090000787FE4F6D8FD75810C02080039
:10086700BB010CE58229F582E5833AF583E0225046
:1008770006E92582F8E622BBFE06E92582F8E22290
:0D088700E58229F582E5833AF583E49322AA
:00000001FF
