:0E0A6800C0F9A4B0999282F8809088FBC8A1D2
:1008F6007508FFE4F509780D7C00FD7BFF7A0A791F
:1009060068FE7F0A1208D078177C007D007BFF7A8C
:100916000A79727E007F041208D0C200120A3FC212
:1009260000120A548F09120A1FEF24F5F50B120A5A
:10093600548F0A1209B3EF641370F8120A3FE50BDD
:1009460014601214602914603024037034E50925FC
:100956000AF50C802CE50AD39509400AD200E50A6F
:100966009509F50C801BC3E509950AF50C8012E57F
:1009760009850AF0A4F50C8008E509850AF084F5D6
:100986000CE50C75F00A84740D25F0F8E6FF1209E3
:10099600FAE50C75F00A84240DF8E6FF1209FA2030
:0D09A60000030209257FBF1209FA0209258E
:1009FA00E4F580FEEEC39408748094805016EF5498
:100A0A00806004D2808002C280C2B4D2B4EF25E0F2
:040A1A00FF0E80E06B
:010A1E0022B5
:100A3F00E4FDEDC394047480948050087FFF120985
:040A4F00FA0D80EE2E
:010A53002280
:1009B300E4F5A07580FFFF7E01EEC3940474809478
:1009C3008050F4EEF404540FF5A0AD80EDF404FD73
:1009D3009400748094804019E4FCECC39407748001
:1009E3009480500DEDC313FD7004EF2CFF220C8097
:0709F300E974082FFF80C228
:100A54001209B3EFFDC3940A748094804005ED64D9
:030A64001070ED22
:010A6700226C
:100A1F001209B3EFFD7C00D3940A748094804009CF
:0F0A2F00ED940F748094804006ED64104C70E1DC
:010A3E002295
:03000000020A767B
:0C0A7600787FE4F6D8FD7581200208F6B8
:10080000E709F608DFFA8046E709F208DFFA803EDA
:1008100088828C83E709F0A3DFFA8032E309F608C7
:10082000DFFA8078E309F208DFFA807088828C832F
:10083000E309F0A3DFFA806489828A83E0A3F608E3
:10084000DFFA805889828A83E0A3F208DFFA804CBD
:1008500080D280FA80C680D4806980F28033801094
:1008600080A680EA809A80A880DA80E280CA8033FD
:1008700089828A83ECFAE493A3C8C582C8CCC58375
:10088000CCF0A3C8C582C8CCC583CCDFE9DEE78045
:100890000D89828A83E493A3F608DFF9ECFAA9F0C4
:1008A000EDFB2289828A83ECFAE0A3C8C582C8CC1A
:1008B000C583CCF0A3C8C582C8CCC583CCDFEADE33
:1008C000E880DB89828A83E493A3F208DFF980CC95
:1008D00088F0EF60010E4E60C388F0ED2402B4048E
:1008E0000050B9F582EB2402B4040050AF23234535
:0608F00082239008507302
:00000001FF
