:0E0A1500C0F9A4B0999282F8809088FBC8A125
:1008F6007508FFE4F509780D7C00FD7BFF7A0A791F
:1009060015FE7F0A1208D078177C007D007BFF7ADF
:100916000A791F7E007F041208D0C200120A30C274
:1009260000120A238F09120A03EF24F5F50B120AA7
:10093600238F0A1209B1BF13FA120A30E50B1460AD
:100946001214602914603024037034E509250AF571
:100956000C802CE50AD39509400AD200E50A9509D0
:10096600F50C801BC3E509950AF50C8012E509858F
:100976000AF0A4F50C8008E509850AF084F50CE573
:100986000C75F00A84740D25F0F8E6FF1209E7E508
:100996000C75F00A84240DF8E6FF1209E72000031F
:0B09A6000209257FBF1209E7020925A6
:1009E700E4F580FEEF54806004D2808002C280C2AA
:0B09F700B4D2B4EF25E0FF0EBE08E90B
:010A020022D1
:0B0A3000E4FD7FFF1209E70DBD04F795
:010A3B002298
:1009B100E4F5A07580FFFF7E01EEC3940450F8EECC
:1009C100F404540FF5A0AD80EDF404FD9400401043
:1009D100E4FCEDC313FD7004EF2CFF220CBC07F205
:0609E10074082FFF80D313
:0C0A23001209B1EFC3940A4003BF10F4A5
:010A2F0022A4
:100A03001209B1EFD3940A4005EF940F4003BF10CE
:010A1300EFF3
:010A140022BF
:03000000020A3CB5
:0C0A3C00787FE4F6D8FD7581200208F6F2
:10080000E709F608DFFA8046E709F208DFFA803EDA
:1008100088828C83E709F0A3DFFA8032E309F608C7
:10082000DFFA8078E309F208DFFA807088828C832F
:10083000E309F0A3DFFA806489828A83E0A3F608E3
:10084000DFFA805889828A83E0A3F208DFFA804CBD
:1008500080D280FA80C680D4806980F28033801094
:1008600080A680EA809A80A880DA80E280CA8033FD
:1008700089828A83ECFAE493A3C8C582C8CCC58375
:10088000CCF0A3C8C582C8CCC583CCDFE9DEE78045
:100890000D89828A83E493A3F608DFF9ECFAA9F0C4
:1008A000EDFB2289828A83ECFAE0A3C8C582C8CC1A
:1008B000C583CCF0A3C8C582C8CCC583CCDFEADE33
:1008C000E880DB89828A83E493A3F208DFF980CC95
:1008D00088F0EF60010E4E60C388F0ED2402B4048E
:1008E0000050B9F582EB2402B4040050AF23234535
:0608F00082239008507302
:00000001FF