:10088100E4FFFEE4FDFC0DBD00010CBC01F8BD3F21
:0C089100F50FBF00010EBE03EABFE8E750
:01089D002238
:10089E00E4FFFEE4FDFC0DBD00010CBC01F8BD3F04
:0C08AE00F50FBF00010EBE01EABFF4E729
:0108BA00221B
:10080000E4F590F5A0F5B07580DB7590CD75A0B6D8
:100810001208817580DB7590B575A0B612089E75BB
:1008200080DB75907975A0B61208817580DB7590B4
:100830007675A0B612089E7580DB75906F75A03630
:100840001208817580DB75906F75A01612089E7571
:1008500080DB75906D75A0E61208817580497590F2
:100860006D75A0C212089E7580B675906D75A0BD9D
:1008700012088175802475902D75A0B912089E808C
:0108800086F1
:030000000208BB38
:0C08BB00787FE4F6D8FD75810702080084
:00000001FF
